:1000000031C055C054C053C052C051C050C04FC081
:100010004EC08AC24CC056C230C249C048C047C058
:1000200046C045C044C00000000038003500320022
:10003000000000003700340031000404040404040C
:100040000404020202020202030303030303010287
:100050000408102040800102040810200102040856
:100060001020130311241FBECFE5D4E0DEBFCDBFA7
:1000700010E0A0E6B0E0E4E9F6E002C005900D92E1
:10008000AC38B107D9F721E0ACE8B0E001C01D926F
:10009000A233B207E1F710E0C2E3D0E003C021973A
:1000A000FE01ECD2C133D107D1F788D2F1C2A8CF7B
:1000B0002FB52F772FBD8230910538F0880F991F0B
:1000C000880F991F05970197F1F708952FB52068BC
:1000D0002FBD8230910538F0880F991F880F991F26
:1000E00005970197F1F70895AF92BF92CF92DF92F3
:1000F000EF92FF920F931F93CF93DF93EC018B014D
:10010000E7E5F0E08491E3E4F0E02491222399F024
:1001100030E0220F331FF901E05DFF4FA591B4914C
:10012000F901EA5DFF4F259134919FB7F894EC9166
:10013000E82BEC939FBF82E08FBD81E18EBD82ED05
:1001400090E097BD86BD86E490E09BBD8ABD80E1CE
:100150009EE0BCDF80E496E0ABDFC801805A9F4F91
:100160006C01C00FD11FC601805690408C179D07AF
:100170001CF5F601A1906F01B12CE12CF12CC50109
:100180000E2C02C0959587950A94E2F780FF06C071
:100190008CE791E09BDF84E195E005C08CE791E07E
:1001A00095DF8CE791E084DFFFEFEF1AFF0A88E02C
:1001B000E816F10421F7D7CF8CE791E087DF8CE7D1
:1001C00091E0DF91CF911F910F91FF90EF90DF9021
:1001D000CF90BF90AF906CCFFC01918D828D98171E
:1001E00061F0828DDF01A80FB11D5D968C91928D1B
:1001F0009F5F9F73928F90E008958FEF9FEF089518
:10020000FC01918D828D981731F0828DE80FF11DE0
:10021000858D90E008958FEF9FEF0895FC01918DFB
:10022000228D892F90E0805C9F4F821B91098F73F4
:1002300099270895FC01848DDF01A80FB11DA35AF1
:10024000BF4F2C91848D90E001968F739927848FF6
:10025000A689B7892C93A089B1898C9180648C93ED
:10026000938D848D981306C00288F389E02D8081D8
:100270008F7D80830895EF92FF920F931F93CF930A
:10028000DF93EC0181E0888F9B8D8C8D981305C0E6
:10029000E889F989808185FD23C0F62E0B8D10E059
:1002A0000F5F1F4F0F731127E02E8C8DE8120BC0CC
:1002B0000FB607FCFACFE889F989808185FFF5CF71
:1002C000CE01B8DFF2CF8B8DFE01E80FF11DE35AAE
:1002D000FF4FF0820B8FEA89FB898081806207C023
:1002E000EE89FF896083E889F98980818064808351
:1002F00081E090E0DF91CF911F910F91FF90EF90FF
:100300000895CF93DF93EC01888D8823C1F0EA89AB
:10031000FB89808185FD05C0A889B9898C9186FDFE
:100320000EC00FB607FCF5CF808185FFF2CFA889FC
:10033000B9898C9185FFEDCFCE017CDFE8CFDF91CD
:10034000CF91089585E990E069DF21E0892B09F4D8
:1003500020E0822F089580E090E0892B19F0F2DFF1
:1003600081114ECE0895CF92DF92EF92FF920F93BC
:100370001F93CF93DF936C017A018B01C0E0D0E033
:10038000CE15DF0589F0D8016D918D01D601ED9173
:10039000FC910190F081E02DC6010995892B11F4A3
:1003A0007E0102C02196ECCFC701DF91CF911F9152
:1003B0000F91FF90EF90DF90CF9008953FB7F894A2
:1003C0008091910090919200A0919300B09194003F
:1003D00022B708B600FE05C02F3F19F00196A11DF7
:1003E000B11D3FBFBA2FA92F982F8827820F911DCB
:1003F000A11DB11DBC01CD0142E0660F771F881F12
:10040000991F4A95D1F708958F929F92AF92BF920C
:10041000CF92DF92EF92FF926B017C01CFDF4B0115
:100420005C01C114D104E104F104E9F0C7DFDC018F
:10043000CB0188199909AA09BB09883E9340A105F7
:10044000B10578F321E0C21AD108E108F10888EE7D
:10045000880E83E0981EA11CB11CC114D104E104D4
:10046000F10421F7DECFFF90EF90DF90CF90BF90A7
:10047000AF909F908F90089507D11F920F920FB663
:100480000F9211242F933F934F935F936F937F931A
:100490008F939F93AF93BF93EF93FF9385E990E082
:1004A000C9DEFF91EF91BF91AF919F918F917F91A5
:1004B0006F915F914F913F912F910F900FBE0F90D1
:1004C0001F9018951F920F920FB60F9211242F9321
:1004D0008F939F93EF93FF93E091A500F091A60077
:1004E0008081E091AB00F091AC0082FD12C0908160
:1004F0008091AE008F5F8F732091AF00821751F013
:10050000E091AE00F0E0EB56FF4F958F8093AE0088
:1005100001C08081FF91EF919F918F912F910F905A
:100520000FBE0F901F9018951F920F920FB60F924B
:1005300011242F933F938F939F93AF93BF938091F9
:100540008D0090918E00A0918F00B091900030911D
:100550008C0023E0230F2D3720F40196A11DB11D3F
:1005600005C026E8230F0296A11DB11D20938C0023
:1005700080938D0090938E00A0938F00B093900095
:100580008091910090919200A0919300B09194007D
:100590000196A11DB11D8093910090939200A093AC
:1005A0009300B0939400BF91AF919F918F913F9131
:1005B0002F910F900FBE0F901F901895789483B7CE
:1005C000826083BF83B7816083BF89B7816089BF41
:1005D0001EBC8EB582608EBD8EB581608EBD8FB51E
:1005E00081608FBD85B5846085BD85B5806485BD1E
:1005F000329A319A309A379A1AB860E070E088E0FF
:1006000090E072DD6DE170E080E090E0FDDE68E09A
:1006100070E083E190E068DD60ED77E080E090E0FD
:10062000F3DE99DEEACFE5E9F0E01382128288EE8C
:1006300093E0A0E0B0E084839583A683B7838FE73F
:1006400090E09183808380E490E09587848729E21D
:1006500030E0378726872BE230E0318B208B2AE28F
:1006600030E0338B228B958B848B8CE290E0978BE0
:10067000868B118E128E138E148E0895EE0FFF1F2F
:100680000590F491E02D099481E090E0F89400C089
:04069000F894FFCF0C
:1006940011DA27F00000000211DA270000313200DD
:1006A40070000000000000C1800026000000003B34
:0C06B40001B3010E01EC00000181010007
:00000001FF
