:1000000012C021C020C01FC01EC01DC01CC01BC00C
:100010001AC019C018C017C016C015C014C013C02C
:1000200012C011C010C011241FBECFE5D4E0DEBF46
:10003000CDBF10E0A0E6B0E001C01D92A236B1072E
:10004000E1F79ED0E9C0DCCFBC01E8E3F0E08081BD
:100050008260808380E49FE1CCD0862F972F90939D
:1000600061008093600022E02FBD21E12EBD97BD8D
:1000700086BD63E070E0A9D0862F972F9BBD8ABD17
:100080000895CF92DF92EF92FF920F931F93CF9339
:10009000DF936B017C018A0186E290E0D5DFEFE41B
:1000A000F0E080818068808380EA9CE80197F1F726
:1000B00080818F77808380E596E40197F1F7015086
:1000C000104081E090E0A0E0B0E09C01AD0104C0F0
:1000D000220F331F441F551F0A95D2F721153105F2
:1000E0004105510581F160EC78E0C8E6DAE1DA011A
:1000F000C9018C219D21AE21BF210097A105B10529
:1001000069F0808180688083CB010197F1F780815D
:100110008F778083CE010197F1F70CC080818068D2
:100120008083CB010197F1F780818F778083CB01AA
:100130000197F1F756954795379527952115310584
:1001400041055105A1F6EFE4F0E0808180688083ED
:1001500080EC98E00197F1F780818F77808381E0D0
:100160008A95F1F7E8E3F0E080818D7F8083DF916D
:10017000CF911F910F91FF90EF90DF90CF90089556
:100180000F931F93CF93DF93E7E3F0E080818260CA
:10019000808388E893E120E931E0F9013197F1F7B4
:1001A0000197D9F700E21EE4C0E9D1E066EF79E0FB
:1001B0008AEA91EC40E250E064DF9801CE010197B9
:1001C000F1F721503040D1F7F1CFAA1BBB1B51E111
:1001D00007C0AA1FBB1FA617B70710F0A61BB70BB7
:1001E000881F991F5A95A9F780959095BC01CD015C
:1001F000089597FB092E07260AD077FD04D0E5DF86
:1002000006D000201AF4709561957F4F0895F6F797
:0C021000909581959F4F0895F894FFCFC2
:00000001FF
