:100000001AC035C033C032C031C030C02FC02EC07E
:100010002DC040C02BC062C535C528C027C026C032
:1000200025C024C023C0BEC2C9C2D5C2F9C200C304
:1000300015C31FC348C311241FBECFE5D4E0DEBFE4
:10004000CDBF11E0A0E6B0E0E2E3F3E102C005902D
:100050000D92AA38B107D9F712E0AAE8B1E001C0C1
:100060001D92AE3DB107E1F728D261C9C9CF1F92F9
:100070000F920FB60F9211248F9380918A018730CF
:1000800018F086E080938A018F910F900FBE0F9039
:100090001F9018951F920F920FB60F9211248F93F5
:1000A0009F93AF93BF938091C8029091C902A09192
:1000B000CA02B091CB020196A11DB11D8093C80266
:1000C0009093C902A093CA02B093CB0286E082BF8C
:1000D00083E083BFBF91AF919F918F910F900FBE2F
:1000E0000F901F9018951092C8021092C90210929A
:1000F000CA021092CB0283E083BF86E082BFE9E5AB
:10010000F0E0808181608083789408952091C80216
:100110003091C9024091CA025091CB02622F732FD5
:10012000842F952F08950F931F938C01EFDF28EEF6
:1001300033E0A901049F9001059F300D149F300DFD
:100140001124442737FD4095542F620F731F841FDD
:10015000951F6093550270935602809357029093B7
:1001600058021F910F910895EF92FF920F931F93E2
:100170007C01CCDF0027F7FC0095102FE60EF71E60
:10018000081F191FC3DF6E157F0580079107D0F385
:100190001F910F91FF90EF900895AC01FC013196F3
:1001A00020812A3209F12D30F9F02A30E9F022239A
:1001B000D9F0CF01841B950B86369105ACF4FA017A
:1001C00030E0CA018B599F4F06C0222369F0319657
:1001D000E817F90749F0322722812A3231F02D3011
:1001E00021F02A3091F701C030E0832F0895DF938A
:1001F000CF9300D0CDB7DEB7BE016F5F7F4F40E138
:1002000050E074D660935D0270935E0280935F024B
:100210009093600289819A8101969A83898360E034
:1002200070E040E150E036D570935C0260935B0271
:100230000F900F90CF91DF9108950F931F93CF935D
:10024000DF93182F092FEB016CE270E05FD7FC0100
:10025000F983E883209751F4812F902F6AE270E0B0
:1002600055D7E0E0F0E08083918306C0108288815A
:100270009981019699838883812F902FDF91CF9167
:100280001F910F9108950F931F9384E6E1E6F2E02A
:10029000DF011D928A95E9F784E090E044DF90D376
:1002A000882371F433DF209155023091560240913A
:1002B000570250915802621773078407950778F325
:1002C0007FD38823F1F101E612E0C80164E670E013
:1002D0008ED3F8018081882381F1C80160E670E047
:1002E0003BD7282F392F232B29F084EF91E03CDFD7
:1002F000CADF27C081E692E069E670E02DD7282F9B
:10030000392F232B11F0BFDF1CC081E692E069E793
:1003100070E022D7282F392F232B11F481E011C050
:1003200080918A01843038F484E080938A0181E0EE
:1003300080938B0106C0A7DF04C084E690E014DF41
:10034000A2DF1F910F910895CF93DF93EC019BDF04
:10035000882351F081E692E0BE01FED6282F392F86
:1003600080E0232B09F081E0DF91CF910895EF9297
:10037000FF920F931F93CF93DF93EC01062FC6DEFE
:1003800010E028EE33E0A901049F9001059F300D95
:10039000149F300D1124442737FD4095542F7B01C5
:1003A0008C01E20EF31E041F151FCE01CDDF882342
:1003B00011F081E007C0AADE6E157F058007910766
:1003C000A0F380E0DF91CF911F910F91FF90EF900C
:1003D00008951F93CF93DF931092C7021092C60225
:1003E00010925A021092590285E890E065E0BFDF52
:1003F000882309F445C081E692E065E870E0ACD658
:10040000282F392FC901059664E270E07FD6EC01F0
:100410002097B1F1CE01C1DE182F882389F1CE01DA
:100420006AE270E073D6009759F1019660E070E0DF
:1004300040E150E02FD4161719F52196D0935A02B7
:10044000C0935902CE016CE270E060D6009761F073
:10045000FC011192F093C702E093C602CF016AE259
:1004600070E054D6FC0109C01092C7021092C60277
:10047000CE016AE270E04AD6FC01108281E001C040
:1004800080E0DF91CF911F9108950F931F93CF9339
:10049000DF938C01EB0186D28DE050D28AE04ED200
:1004A000C80161E064DF882319F0CE0161E05FDFFD
:1004B000DF91CF911F910F9108952F923F924F920C
:1004C0005F926F927F928F929F92AF92BF92CF92E4
:1004D000DF92EF92FF920F931F93DF93CF93CDB7ED
:1004E000DEB762970FB6F894DEBF0FBECDBFDE0158
:1004F0001196E9E7F1E086E001900D928150E1F775
:1005000018861F82F0DDF3D186E087BBE8E3F0E0D8
:100510008081897F808384E082BBEBE5F0E080818D
:100520008064808383E085BF78948BE890E060E00E
:1005300070E040E150E0DAD440E250E00AD3E8E372
:10054000F0E080818D7F80831092C50284E990E085
:1005500029D280ED97E008DE87D2FF2481E692E081
:10056000898B9A8BE82E992E0F2EF7E86F2EF1E0EB
:100570007F2EF02DE2C080918A01882329F0E8E3E4
:10058000F0E080818460808384E690E0EDDD8091FE
:100590008A01E82FF0E0E830F10508F0C2C0ED5E16
:1005A000FF4F09948FE990E062EA70E06EDF8823E4
:1005B00009F4B7C081E080938A01B3C085EA90E076
:1005C00062EA70E062DF882309F4ABC082E08093C6
:1005D0008A014AD2A6C048D281EB90E0E3D18EEBEB
:1005E00090E0E0D18AEC90E0DDD18EEC90E0DAD1C1
:1005F00088ED90E0D7D180EA9FE0B6DD80918B0155
:10060000813021F482E080938A018BC080918A013D
:10061000823009F086C083E080938A01FF2481C084
:1006200023D288EE93E0A0DD84E080938A0179C034
:100630001BD28CED90E062EA70E027DF882351F452
:1006400089899A8968EE70E087D5282F392F232B66
:1006500009F467C085E080938A0163C08EEE90E064
:10066000A1D184EF91E080DD86E080938A01FF24B0
:1006700058C084EF91E078DDF7D18CEF90E06CE129
:1006800071E003DF882391F489899A8962EA70E036
:1006900063D5282F392F232B49F489899A8964E25D
:1006A00071E05AD5282F392F232B29F087E080932A
:1006B0008A01DAD136C0F39485E08F1590F584E095
:1006C00080938A012EC0C29B06C0E8E3F0E08081DF
:1006D0008B7F808305C0E8E3F0E0808184608083C5
:1006E00078DE8823E9F08091590290915A020097B0
:1006F000B9F00091C6021091C7020115110581F0F1
:100700006AE271E029D5282F392F232B49F08CEC90
:1007100092E0B80140E150E00BD588E080938A0177
:10072000A3D180918A01873028F4E8E3F0E080814A
:100730008B7F808384E690E017DD80918A0188308A
:1007400008F419CFFF2408E310E08824689483F8A4
:100750005E010894A11CB11C0F2EFAE24F2E552405
:10076000F02D22243324689426F80F2EF9E5CF2E9D
:10077000DD24F02DB2C0F80180818B7F808380E37F
:1007800091E010D184E690E0EFDC6ED180E491E05E
:1007900009D18CEC92E006D186E591E003D164D1D9
:1007A00088EE93E0E1DC8E2D992DDC01E0E6F1E0AE
:1007B000882D01900D928150E1F78E2D992DB50174
:1007C0009AD4E1E6F2E001900020E9F731975182F6
:1007D00040828E2D992DE1DCF82E90E0BE01675FFE
:1007E0007F4F40E150E0F9D4BC018E2D992D83D488
:1007F00088E691E0D7D0E1E6F2E001900020E9F749
:10080000CF0181569240BE01675F7F4F4AE050E0C2
:10081000E4D4C8D086E791E0C5D0F8018081846037
:10082000808384EF91E0A0DC8E2D992DBBD086E7EC
:1008300091E0B8D0D501E9E7F1E086E001900D92B2
:100840008150E1F7C6DD882309F440C0F8018081BA
:100850008B7F80838091590290915A0261E871E008
:100860007BD4282F392F232B09F43FC08091C60257
:100870009091C702B3013BD480E090E0B30137D43C
:10088000BC01C5014ED480E090E0B30130D4F894AF
:10089000F1011082F2011082F60180818E7F808347
:1008A00080E090E0B30123D460E070E040E150E0EC
:1008B0001DD340E250E04DD1F80180818D7F8083CF
:1008C000F60180818160808312D00FC084EF91E0B7
:1008D0004BDCF394FEE1FF1528F080918A0188300B
:1008E00008F049CF10928A0128CFFF24F6CFF89460
:1008F00082E08BB9AAE2B0E01C9280E189B9E0E421
:10090000F0E0108288E98C9386E880831092500290
:1009100010924F0280914F0280934E0280914E02BE
:1009200080934D0280914D0280934C0278940895FB
:1009300080914C0290914D02891B08951F93CF9393
:10094000DF93182FC0E4D0E0F3DF9E01281B3109AC
:1009500023303105CCF3E0914C02F0E0EF73F070FE
:10096000E457FE4F108380914C028F5F80934C02BE
:10097000EAE2F0E0808180628083DF91CF911F9175
:100980000895CF93DF93FC018491882341F0EF0118
:100990002196D4DFFE01219684918823D1F7DF913F
:1009A000CF910895CF93DF93EC018881882329F0BC
:1009B0002196C4DF88818823D9F7DF91CF910895EC
:1009C00080914E0290914F02891B0895F9DF882390
:1009D000E9F3E0914F02F0E0EF77F070E453FE4F5F
:1009E000808190914F029F5F90934F020895EF9204
:1009F000FF920F931F93CF93DF938C011616170668
:100A00001CF0C0E0D0E027C0C0E0D0E07B0108943B
:100A1000E108F108DBDFF801EC0FFD1F80838D306A
:100A200029F481E080935002CE0111C08A3039F45C
:100A300080915002882351F010925002EBCF109217
:100A40005002CE15DF0534F72196E4CFCE01F80130
:100A5000E80FF91F10828C2F9D2FDF91CF911F91EE
:100A60000F91FF90EF90089501C0B0DFA9DF8823B8
:100A7000E1F710924F0280914F0280934E02109244
:100A8000500208951F920F920FB60F9211248F9368
:100A90009F93EF93FF9390914C0280914D02981792
:100AA00079F0E0914D02F0E0EF73F070E457FE4F03
:100AB00080818CB980914D028F5F80934D0205C07B
:100AC000EAE2F0E080818F7D8083FF91EF919F913A
:100AD0008F910F900FBE0F901F9018951F920F923D
:100AE0000FB60F9211248F93EF93FF93E0914E0274
:100AF000F0E0EF77F0708CB1E453FE4F808380918B
:100B00004E028F5F80934E02FF91EF918F910F9075
:100B10000FBE0F901F901895BC01E8E3F0E08081B4
:100B20008260808380E49FE1A2D0862F972F9093EC
:100B300052028093510222E02FBD21E12EBD97BDCC
:100B400086BD63E070E07FD0862F972F9BBD8ABD66
:100B50000895CF92DF92EF92FF920F931F93CF935E
:100B6000DF936B017C018A0186E290E0D5DFEFE440
:100B7000F0E080818068808380EA9CE80197F1F74B
:100B800080818F77808380E596E40197F1F70150AB
:100B9000104081E090E0A0E0B0E09C01AD0104C015
:100BA000220F331F441F551F0A95D2F72115310517
:100BB0004105510581F160EC78E0C8E6DAE1DA013F
:100BC000C9018C219D21AE21BF210097A105B1054E
:100BD00069F0808180688083CB010197F1F7808183
:100BE0008F778083CE010197F1F70CC080818068F8
:100BF0008083CB010197F1F780818F778083CB01D0
:100C00000197F1F7569547953795279521153105A9
:100C100041055105A1F6EFE4F0E080818068808312
:100C200080EC98E00197F1F780818F77808381E0F5
:100C30008A95F1F7DF91CF911F910F91FF90EF907F
:100C4000DF90CF900895AA1BBB1B51E107C0AA1FDC
:100C5000BB1FA617B70710F0A61BB70B881F991F5D
:100C60005A95A9F780959095BC01CD01089597FB01
:100C7000092E07260AD077FD04D0E5DF06D0002034
:100C80001AF4709561957F4F0895F6F790958195C8
:100C90009F4F08952F923F925F926F927F928F9213
:100CA0009F92AF92BF92CF92DF92EF92FF920F93FB
:100CB0001F93CF93DF938C011B01EA01611571052E
:100CC00019F0FB0191838083209749F0CE010297B0
:100CD000839728F020E030E040E050E0F3C0F801D6
:100CE000A1908F018A2D90E0FAD1892BC1F7FDE206
:100CF000AF1631F4F801A1908F015524539407C029
:100D0000FBE2AF1619F4F801A1908F01552420974A
:100D100019F0C031D105C1F4F0E3AF1679F4F80150
:100D20008081883711F0883549F4F801A1800E5F81
:100D30001F4FF2E05F2AC0E1D0E006C0209721F407
:100D400080E3A816E9F427C0C830D10531F1C930D5
:100D5000D10524F4C230D10531F50CC0CA30D1051B
:100D600089F0C031D105F9F4C12CD12CE12CB8E0C7
:100D7000FB2E27C0C12CD12CE12CA0E4FA2E21C0DF
:100D8000CAE0D0E0FCECCF2EFCECDF2EFCECEF2E2A
:100D9000FCE0FF2E16C0C8E0D0E0C12CD12CE12C25
:100DA000E0E1FE2E0EC09E01442737FD4095542FF2
:100DB00060E070E080E090E861D2C901DA016C0186
:100DC0007D0120E030E040E050E060E03E0188241A
:100DD00077FC8094982C70EDB72EBA0CE9E0EB15F7
:100DE00070F48A2D81548A3118F499ECB92E06C01A
:100DF0008A2D81568A3148F589EAB82EBA0C8B2D96
:100E000090E08C179D070CF56F3FD9F0C216D30602
:100E1000E406F506A8F0CA01B901A40193010FD2B6
:100E20009B01AC012B0D311D411D511D2130F0E006
:100E30003F07F0E04F07F0E85F0710F461E001C002
:100E40006FEFF801A1908F01C6CF2114310481F01A
:100E5000662331F001501040F1011183008308C076
:100E600051FE1AC002501040F1011183008314C0DA
:100E700067FF12C050FC05C02FEF3FEF4FEF5FE759
:100E800004C020E030E040E050E882E290E090933F
:100E9000DD028093DC0216C050FE08C050954095DC
:100EA000309521953F4F4F4F5F4F0CC057FF0AC001
:100EB00082E290E09093DD028093DC022FEF3FEF1F
:100EC0004FEF5FE7B901CA01DF91CF911F910F91F9
:100ED000FF90EF90DF90CF90BF90AF909F908F905A
:100EE0007F906F905F903F902F900895A0E0B0E0CA
:100EF000EBE7F7E0E6C1EC012B016A016115710532
:100F000019F0FB0191838083C114D10449F0C6011B
:100F10000297839728F020E030E040E050E0D9C00D
:100F2000A9908A2D90E0DBD0892BD1F7FDE2AF1696
:100F300021F4A9903324339405C08BE2A81609F458
:100F4000A9903324C114D10421F0E0E1CE16D104DC
:100F500011F5F0E3AF1669F48881883711F0883510
:100F600041F4A980229682E0382A20E1C22ED12CB9
:100F700012C0C114D10479F4E0E3AE1659F199E935
:100F8000E92E99E9F92E99E9092F99E1192F8AE0BB
:100F9000C82ED12C39C0FAE0CF16D10491F080E1EF
:100FA000C816D10429F0E8E0CE16D104F9F415C032
:100FB000BFEFEB2EBFEFFB2EBFEF0B2FBFE01B2FC2
:100FC00023C0A9E9EA2EA9E9FA2EA9E90A2FA9E185
:100FD0001A2F1AC0F8E0CF2ED12CEFEFEE2EEFEF44
:100FE000FE2EEFEF0E2FEFE11E2F0EC096014427CD
:100FF00037FD4095542F6FEF7FEF8FEF9FEF3ED17E
:10100000C901DA017C018D0120E030E040E050E0D0
:1010100060E03601882477FC8094982C70EDB72E20
:10102000BA0CF9E0FB1570F48A2D81548A3118F45A
:1010300099ECB92E06C08A2D81568A3140F589EA8D
:10104000B82EBA0C8B2D90E08C159D0504F56F3FE2
:10105000E1F0E216F30604071507B0F0CA01B90182
:10106000A4019301ECD09B01AC018B2D90E0A0E09A
:10107000B0E0280F391F4A1F5B1F281739074A079E
:101080005B0710F061E001C06FEFA990C7CF41147A
:10109000510451F0662311F0219703C031FE04C0C2
:1010A0002297F201D183C08330FE07C0509540954E
:1010B000309521953F4F4F4F5F4F67FF0AC082E247
:1010C00090E09093DD028093DC022FEF3FEF4FEF33
:1010D0005FEFB901CA01CDB7DEB7E1E10EC19111F1
:1010E0009BC0803219F089508550D0F7089543E5B0
:1010F00052E04CD00895FB01DC010D900020E9F78F
:10110000119701900D920020E1F70895FC01819163
:10111000861721F08823D9F7992708953197CF01B1
:101120000895FB01DC0101900D920020E1F7089584
:10113000DC01FB014150504058F049F001900D9204
:101140000020C1F7E61BF70B3197CF0108951C92E1
:1011500001900020E9F7F6CFFB0151915523A9F04A
:10116000BF01DC014D9145174111E1F759F4CD0163
:101170000190002049F04D9140154111C9F3FB0148
:101180004111EFCF81E090E001970895FA01A1911C
:10119000B081009719F41097E1F0CD01DC01CD0189
:1011A0000D90002011F4C00113C0FB0121912223F6
:1011B00019F02015D9F7F3CFFB012191201519F46F
:1011C0001E92119606C02223C1F70D900020A1F7B0
:1011D000D001FA01A193B0830895FB019F01E89427
:1011E0004230BCF04532ACF44A3029F497FB1EF48F
:1011F000909581959F4F642F772725DD805D8A33F9
:101200000CF0895D8193CB010097A9F716F45DE29C
:1012100051931082C90103C0992788270895DC01E2
:10122000FC01672F71917723E1F7329704C07C911D
:101230006D9370836291AE17BF07C8F30895629FE4
:10124000D001739FF001829FE00DF11D649FE00DBE
:10125000F11D929FF00D839FF00D749FF00D659F1F
:10126000F00D9927729FB00DE11DF91F639FB00D1E
:10127000E11DF91FBD01CF0111240895A1E21A2E2D
:10128000AA1BBB1BFD010DC0AA1FBB1FEE1FFF1F2A
:10129000A217B307E407F50720F0A21BB30BE40B7A
:1012A000F50B661F771F881F991F1A9469F76095C1
:1012B0007095809590959B01AC01BD01CF0108957B
:1012C0002F923F924F925F926F927F928F929F9256
:1012D000AF92BF92CF92DF92EF92FF920F931F9344
:1012E000CF93DF93CDB7DEB7CA1BDB0B0FB6F894F5
:1012F000DEBF0FBECDBF09942A88398848885F8435
:101300006E847D848C849B84AA84B984C884DF80A5
:10131000EE80FD800C811B81AA81B981CE0FD11D89
:101320000FB6F894DEBF0FBECDBFED010895F8945F
:02133000FFCFED
:101332006275737920702E2E005749464920444920
:1013420053434F4E4E454354005749464920474F59
:1013520054204950002B4950442C0041314445321D
:10136200314445000D0A41542B5253540D0A004199
:1013720054004F4B0041542B43574D4F44453D338E
:10138200000D0A41542B43574A41503D22004D4E15
:10139200495F50524F4A45435400222C2200697241
:1013A20070726F6A65637400220D0A0041542B4308
:1013B20049504D55583D30004552524F520041540C
:1013C2002B434950434C4F53450D0A0041542B4384
:1013D200495053544152543D22554450222C2230FC
:1013E200222C302C31303030302C3200434F4E4ED4
:1013F2004543540052454144590049524349500023
:101402000D0A41542B434950434C4F53450D0A009A
:101412000D0A41542B43495053544152543D2254D6
:101422004350222C2200222C31303030300D0A0061
:101432002449525245512C000D0A41542B43495024
:1014420053454E443D000D0A00303030303000002C
:0A145200004952434D44002C2A00CB
:00000001FF
