:1000000012C02CC02BC02AC029C028C027C026C0BF
:1000100025C042C023C0C5C39CC320C01FC01EC092
:100020001DC01CC01BC011241FBECFE5D4E0DEBF25
:10003000CDBF12E0A0E6B0E0E2EAFBE002C005902E
:100040000D92A632B107D9F713E0A6E2B2E001C0E3
:100050001D92A435B107E1F77ED1A1C5D1CF13BE62
:1000600012BE89B78E7F89BF089513BE8CE782BF09
:1000700089B7816089BF789483B7856083BF08950D
:10008000843008F008958295880F880F807C815015
:1000900080932702EADF08951F920F920FB60F9206
:1000A00011242F933F934F935F936F937F938F937D
:1000B0009F93AF93BF93EF93FF9380912702882381
:1000C000B1F413BE12BE89B78E7F89BFFF91EF9145
:1000D000BF91AF919F918F917F916F915F914F9160
:1000E0003F912F910F900FBE0F901F901895809108
:1000F0002702815080932702B8DFE8CFFC0191816D
:100100009A32D1F09D30C1F09A30B1F09923A1F02C
:1001100080E09F012B593F4F0AC09D3061F09A301B
:1001200069F0992349F03196E217F30729F08927FE
:1001300092819A3291F7089580E008950895FF9290
:100140000F931F93CF93DF930DEE12E084E6F82E0A
:10015000C0E9D1E0F8018F2D11928A95E9F780E688
:1001600090E053D282E08CDFEED2882321F480919C
:1001700027028823C9F7E7D2882349F18DEE92E060
:1001800064E670E09DD28091ED028823E1F088E77B
:1001900090E03BD28DEE92E038D284E890E035D208
:1001A0008DEE92E06AE870E059D40097B9F083E9E7
:1001B00090E02BD228EE33E0CE010197F1F72150E9
:1001C0003040D1F7C7CF82EA90E01FD2C3CF80E0A2
:1001D000DF91CF911F910F91FF90089581E0DF9102
:1001E000CF911F910F91FF900895CF92DF92FF92D0
:1001F0000F931F93DF93CF93CDB7DEB728970FB63A
:10020000F894DEBF0FBECDBF9ADF882379F480E07B
:1002100028960FB6F894DEBF0FBECDBFCF91DF9109
:100220001F910F91FF90DF90CF9008958DEE92E097
:1002300069EB70E013D4009751F3059664E270E027
:1002400002D48C01009719F38FEB90E0DED1C80146
:10025000DCD184E890E0D9D1C80150DFF82E8823A2
:10026000B1F28DEC90E0D1D18F2D90E06E01089429
:10027000C11CD11CB60140E150E00AD4C6D184E8CB
:1002800090E0C3D1C8016AE270E0DDD3009709F4C1
:10029000BECF019660E070E040E150E0A0D2162FA2
:1002A00089EE90E0B2D1812F90E0B60140E150E0BC
:1002B000EFD3ABD184E890E0A8D180E0F11609F04B
:1002C000A7CF81E0A5CFCF93DF93EC0138DF882360
:1002D000D1F082E091E099D18DEE92E096D18EE05E
:1002E00091E093D1CE0191D184E890E08ED18DEE52
:1002F00092E0BE01B3D39C0180E0232B09F081E0A2
:10030000DF91CF91089585E191E07FD18DEE92E06C
:100310007CD184E890E079D180E0DF91CF9108959D
:100320000F931F93CF93DF938C01EB018DE050D19E
:100330008AE04ED1C80169D18DE04AD18AE048D126
:10034000C801C1DF882311F0CE01BDDFDF91CF915D
:100350001F910F910895DF92EF92FF920F931F93D9
:10036000CF93DF9318D182E087BBC19810925103DD
:1003700081E291E04AD18AE391E047D180E29EE4B4
:1003800020E931E0F9013197F1F70197D9F770D100
:1003900010E040912602C0E9D1E002E034E0F32E03
:1003A00026E0E22E95E0D92E28EE33E0CE0101972B
:1003B000F1F721503040D1F7433009F470C0443098
:1003C000F0F4413009F48EC0423008F45CC050D1E2
:1003D00087E591E01AD182E053DE809127028823DD
:1003E000E1F783E08093260210E043E028EE33E05B
:1003F000CE010197F1F721503040D1F7D5CF4530EC
:10040000A9F1453060F48FEC91E068E471E088DF99
:10041000882309F4A9C0D092260245E0E7CF4630F0
:1004200079F04F3F19F7E1DE86E192E0EED08DEEF4
:1004300092E0EBD084E890E0E8D040912602D6CF5D
:1004400082EF91E0E2D082E01BDE809127028823D8
:10045000E1F78FEA91E037DF882309F451C08FEF8D
:100460008093260205D140912602C0CF81EE91E013
:1004700068E471E055DF882309F465C0E092260244
:1004800010E046E0B3CF85E491E068E471E048DF36
:10049000882399F281E08093260241E0A7CFE8D03B
:1004A00086E891E063E971E03BDF8823A1F18DEEFE
:1004B00092E06AE370E0C7D260E070E04AE050E0AA
:1004C0008ED1162F8BE991E0A0D0812F805D80D056
:1004D00084E890E09AD0123090F1F092260210E079
:1004E00044E084CF8BE491E068E471E019DF882375
:1004F00009F4A3CF00932602BBD04091260276CF09
:100500008DEE92E06BED71E0A9D20097B1F1F0921F
:10051000260244E06BCF8DEE92E06FEA71E09ED24E
:100520000097D9F61F5F87EB91E06FD0812F805D38
:100530004FD084E890E069D0163008F47ECF009365
:10054000260242E053CF8DEE92E06BED71E086D251
:10055000009709F093CF8DEE92E06DEE71E07ED2C0
:10056000009709F08BCF69CF8DEE92E06BED71E0D3
:1005700075D2009709F04FCF60CF1F5F87EB91E0F6
:1005800044D0812F805D24D084E890E03ED01630A6
:1005900008F0BDCF52CFF89482E08BB91AB880E151
:1005A00089B910BC88E98AB986E880BD1092EC024E
:1005B0001092EB028091EB028093EA028091EA02B2
:1005C0008093E9028091E9028093E802789408958B
:1005D000482F20E430E08091E8029091E902891BE5
:1005E000B901681B710963307105ACF3E091E80251
:1005F000F0E0EF73F070E85DFD4F40838091E8021A
:100600008F5F8093E802559A0895CF93DF93EC01B2
:100610008881882329F02196DBDF88818823D9F718
:10062000DF91CF910895CF93DF93FC0184918823CC
:1006300041F0EF012196CCDFFE01219684918823C1
:10064000D1F7DF91CF9108959091EA028091EB026A
:100650009817D1F3E091EB02F0E0EF77F070E859F2
:10066000FD4F80819091EB029F5F9093EB02089584
:100670009091EA028091EB029817C9F09091EA02FA
:100680008091EB029817D1F3E091EB02F0E0EF7765
:10069000F070E859FD4FE0818091EB028F5F80930D
:1006A000EB029091EA028091EB02981739F71092D1
:1006B000EB028091EB028093EA021092EC02089523
:1006C000AC0116161706ACF520E030E0DC016150F5
:1006D00070409091EA028091EB029817D1F3E0917B
:1006E000EB02F0E0EF77F070E859FD4FE081809188
:1006F000EB028F5F8093EB02EC93ED3069F0EA3010
:1007000089F01092EC02261737071CF72F5F3F4F36
:10071000DA01A20FB31FDDCF81E08093EC021C92BF
:10072000C90108958091EC028823C9F31092EC026C
:10073000D0CF20E030E0C90108958091E802909187
:10074000E902891B08958091EA029091EB02891BCE
:1007500008951F920F920FB60F9211248F939F93BB
:10076000EF93FF939091E8028091E9029817B9F016
:10077000E091E902F0E0EF73F070E85DFD4F8081F9
:100780008CB98091E9028F5F8093E902FF91EF912C
:100790009F918F910F900FBE0F901F9018955598B5
:1007A000F5CF1F920F920FB60F9211248F93EF93F4
:1007B000FF93E091EA02F0E0EF77F0708CB1E85936
:1007C000FD4F80838091EA028F5F8093EA02FF9160
:1007D000EF918F910F900FBE0F901F9018952F9251
:1007E0003F925F926F927F928F929F92AF92BF9251
:1007F000CF92DF92EF92FF920F931F93CF93DF93ED
:100800008C011B01EA016115710519F0FB0191834F
:100810008083209749F0CE010297839728F020E04B
:1008200030E040E050E0F3C0F801A1908F018A2D44
:1008300090E001D1892BC1F7FDE2AF1631F4F80148
:10084000A1908F015524539407C0FBE2AF1619F411
:10085000F801A1908F015524209719F0C031D105DE
:10086000C1F4F0E3AF1679F4F8018081883711F014
:10087000883549F4F801A1800E5F1F4FF2E05F2A2E
:10088000C0E1D0E006C0209721F480E3A816E9F487
:1008900027C0C830D10531F1C930D10524F4C230A8
:1008A000D10531F50CC0CA30D10589F0C031D10570
:1008B000F9F4C12CD12CE12CB8E0FB2E27C0C12CBF
:1008C000D12CE12CA0E4FA2E21C0CAE0D0E0FCEC4F
:1008D000CF2EFCECDF2EFCECEF2EFCE0FF2E16C042
:1008E000C8E0D0E0C12CD12CE12CE0E1FE2E0EC0FE
:1008F0009E01442737FD4095542F60E070E080E072
:1009000090E82BD1C901DA016C017D0120E030E0D3
:1009100040E050E060E03E01882477FC8094982C11
:1009200070EDB72EBA0CE9E0EB1570F48A2D815406
:100930008A3118F499ECB92E06C08A2D81568A3175
:1009400048F589EAB82EBA0C8B2D90E08C179D07DC
:100950000CF56F3FD9F0C216D306E406F506A8F0F1
:10096000CA01B901A4019301C5D09B01AC012B0DB3
:10097000311D411D511D2130F0E03F07F0E04F07D0
:10098000F0E85F0710F461E001C06FEFF801A1909B
:100990008F01C6CF2114310481F0662331F001505C
:1009A0001040F1011183008308C051FE1AC00250AB
:1009B0001040F1011183008314C067FF12C050FC86
:1009C00005C02FEF3FEF4FEF5FE704C020E030E0BE
:1009D00040E050E882E290E090935303809352030A
:1009E00016C050FE08C050954095309521953F4F58
:1009F0004F4F5F4F0CC057FF0AC082E290E09093C8
:100A00005303809352032FEF3FEF4FEF5FE7B9019E
:100A1000CA01DF91CF911F910F91FF90EF90DF906E
:100A2000CF90BF90AF909F908F907F906F905F908E
:100A30003F902F90089591114AC0803219F089504B
:100A40008550D0F70895FC018191861721F0882305
:100A5000D9F7992708953197CF010895FB01519156
:100A60005523A9F0BF01DC014D9145174111E1F774
:100A700059F4CD010190002049F04D9140154111EC
:100A8000C9F3FB014111EFCF81E090E00197089598
:100A9000FB019F01E8944230BCF04532ACF44A308F
:100AA00029F497FB1EF4909581959F4F642F77272B
:100AB00040D0805D8A330CF0895D8193CB01009733
:100AC000A9F716F45DE251931082C90103C099277A
:100AD00088270895DC01FC01672F71917723E1F7E6
:100AE000329704C07C916D9370836291AE17BF07FB
:100AF000C8F30895629FD001739FF001829FE00DBB
:100B0000F11D649FE00DF11D929FF00D839FF00D8C
:100B1000749FF00D659FF00D9927729FB00DE11D38
:100B2000F91F639FB00DE11DF91FBD01CF01112415
:100B30000895AA1BBB1B51E107C0AA1FBB1FA61724
:100B4000B70710F0A61BB70B881F991F5A95A9F776
:100B500080959095BC01CD010895A1E21A2EAA1BA3
:100B6000BB1BFD010DC0AA1FBB1FEE1FFF1FA2175D
:100B7000B307E407F50720F0A21BB30BE40BF50B5A
:100B8000661F771F881F991F1A9469F760957095E3
:100B9000809590959B01AC01BD01CF010895F8941B
:020BA000FFCF85
:100BA2002D2D3E205741495420494E434F4D494E29
:100BB20047203C2D2D0D0A002D2D3E52454345491F
:100BC20056453A003C2D2D0D0A006275737920704E
:100BD2002E2E002D2D3E2042555359203C2D2D0DF9
:100BE2000A002D2D3E20454D505459205354524950
:100BF2004E47203C2D2D0D0A002B4950442C002D30
:100C02002D3E4E4D454120446174613A002D2D3EEA
:100C12004E4D454120436865636B73756D2063617A
:100C22006C63756C6174653A002D2D3E4E4D4541E5
:100C320020436865636B73756D2072657475726E9F
:100C42003A002D2D3E436F6D706172653A00205758
:100C52004954483A002D2D3E2052657475726E3A01
:100C6200002D2D3E3E41544D6567612053746172E3
:100C72007421203C3C2D2D0D0A000D0A41542B52AB
:100C820053540D0A004154004F4B0041542B43571B
:100C92004D4F44453D33000D0A41542B43574A41C1
:100CA200503D2261697366696272655F322E344714
:100CB2005F463537443530222C2236464635374496
:100CC2003530220D0A0041542B43495053544154AC
:100CD2005553005354415455533A002D2D3E574914
:100CE200464920434950205374617475733A004356
:100CF2004F4E4E454354002D2D3E57494649204301
:100D02006F6E6E65637420417474656D703A004154
:100D1200542B4349504D55583D30004552524F5285
:100D22000041542B434950434C4F534500464149DF
:100D32004C000D0A41542B43495053544152543DE7
:100D420022554450222C2230222C302C313030308B
:100D5200302C320D0A002D2D3E4553502052657421
:060D620075726E3A0000FC
:00000001FF
