:100000001AC034C033C032C031C030C02FC02EC07F
:100010002DC02DC02BC0A9C580C528C027C026C0B3
:1000200025C024C023C056C34AC38EC360C37EC349
:1000300037C30DC3ECC211241FBECFE5D4E0DEBF31
:10004000CDBF11E0A0E6B0E0E0EFF9E102C005901D
:100050000D92AE3AB107D9F712E0AEEAB1E001C0B5
:100060001D92AF3FB107E1F7F7D1C0CCC9CF1F92C6
:100070000F920FB60F9211248F939F93AF93BF935C
:100080008091E9029091EA02A091EB02B091EC021A
:100090000196A11DB11D8093E9029093EA02A093FD
:1000A000EB02B093EC0286E082BF83E083BFBF9196
:1000B000AF919F918F910F900FBE0F901F90189549
:1000C0001092E9021092EA021092EB021092EC02F6
:1000D00083E083BF86E082BF89B7816089BF78945F
:1000E00008954091E9025091EA026091EB0270910B
:1000F000EC0228EE33E0FC01E29FC001E39F900D8B
:10010000F29F900D1124AA2797FDA095BA2F840F76
:10011000951FA61FB71F8093760290937702A09336
:100120007802B09379020895FC0191819A32D1F05E
:100130009D30C1F09A30B1F09923A1F080E09F0189
:100140002B593F4F0AC09D3061F09A3069F09923D6
:1001500049F03196E217F30729F0892792819A3204
:1001600091F7089580E008950895DF93CF9300D02C
:10017000CDB7DEB7BE016F5F7F4F40E150E040DAA0
:1001800060937E0270937F0280938002909381023D
:1001900089819A8101969A83898360E070E040E1C9
:1001A00050E002D970937D0260937C020F900F9013
:1001B000CF91DF910895EF92FF920F931F93CF930A
:1001C000DF9302E812E094E6F92EC0E9D1E084E082
:1001D000E82EF8018F2D11928A95E9F78091E902B6
:1001E0009091EA02A091EB02B091EC028056904F00
:1001F000AF4FBF4F8093760290937702A09378021F
:10020000B093790284D48823A9F4209176023091A6
:10021000770240917802509179028091E9029091A1
:10022000EA02A091EB02B091EC0282179307A407B7
:10023000B50740F36CD4882311F182E892E064E6BC
:1002400070E022D480918202882349F428EE33E0C2
:10025000CE010197F1F721503040D1F7BACF82E8B3
:1002600092E060E670E0FEDA009789F028E833E17A
:10027000CE010197F1F721503040D1F7AACF80E0AD
:10028000DF91CF911F910F91FF90EF90089582E839
:1002900092E069E670E0E6DA009709F09ACF82E82A
:1002A00092E069E770E0DEDA009741F08091AE01FC
:1002B000843008F08ECFE092AE018BCF81E0E0CFAA
:1002C000CF93DF93EC0177DF882319F4DF91CF918F
:1002D000089582E892E0BE01C5DA9C0180E0232BFC
:1002E000A9F381E0DF91CF910895EF92FF920F93F0
:1002F0001F93CF93DF93EC012091E9023091EA0242
:100300004091EB025091EC0270E088EE93E0FC012A
:100310006E9FC0016F9F900D7E9F900D11247C01F8
:100320000027F7FC0095102FE20EF31E041F151F87
:10033000CE01C6DF8823A9F48091E9029091EA02F8
:10034000A091EB02B091EC028E159F05A007B107BA
:1003500078F380E0DF91CF911F910F91FF90EF90A4
:10036000089581E0DF91CF911F910F91FF90EF9061
:1003700008951F93CF93DF931092E8021092E70243
:1003800010927B0210927A0285E890E065E0ADDF82
:10039000882329F480E0DF91CF911F91089582E8AE
:1003A00092E065E870E05EDA059664E270E034DAC7
:1003B000EC01009779F3B8DE182F882359F3CE01AA
:1003C0006AE270E029DA009729F3019660E070E0B4
:1003D00040E150E0E9D71617E9F62196D0937B0269
:1003E000C0937A02CE016CE270E016DAFC0100974D
:1003F00069F01192F093E802E093E702CF016AE21C
:1004000070E00ADAFC01108281E0C5CF1092E802A8
:100410001092E702CE016AE270E0FED9F3CF0F93AB
:100420001F93CF93DF938C01EB018DE0B5D28AE06F
:10043000B3D2C801CED28DE0AFD28AE0ADD2C8012E
:1004400061E053DF882319F0CE0161E04EDFDF91D8
:10045000CF911F910F9108954F925F926F927F926B
:100460008F929F92AF92BF92DF92EF92FF920F9383
:100470001F93DF93CF93CDB7DEB760970FB6F89495
:10048000DEBF0FBECDBF5E010894A11CB11CD5011B
:10049000ECE8F1E086E001900D928150E1F71886DA
:1004A0001F820EDE5CD286E087BB88B3897F88BB63
:1004B0001092E6028BE890E08CD280E29EE420E984
:1004C00031E0F9013197F1F70197D9F7B5D2DD2481
:1004D0004091AE0169E0862E912C8C0E9D1E00E9A4
:1004E00011E052E8452E52E0552E483008F47DC008
:1004F0003AE2E32EF12C21E0622E712CC29883E4C3
:1005000091E067D228EE33E0C8010197F1F721505E
:100510003040D1F791D283E591E05BD28DEE92E04D
:1005200058D289E691E055D287D228E833E1C80154
:100530000197F1F721503040D1F7A2E8B2E0E3E7AC
:10054000F1E088E001900D928150E1F782E892E0BD
:10055000B50157D9F20101900020E9F73197E2582F
:10056000F240EE57FD4FF182E08282E892E0DCDD5E
:10057000D82E90E0B40140E150E08ED9BC0182E871
:1005800092E03FD98BE791E024D2F2010190002064
:10059000E9F73197CF0182589240B4014AE050E028
:1005A0007BD917D289E891E014D2C29A28E833E1C6
:1005B000C8010197F1F721503040D1F782E892E06D
:1005C00008D2D501ECE8F1E086E001900D9281506F
:1005D000E1F7CFDE882309F0CAC0D3948EE18D15F0
:1005E00008F08CCF1092AE0140E0C29A28EE33E0C2
:1005F000C8010197F1F721503040D1F7E42FF0E026
:10060000E830F10508F041C0ED5EFF4F0994B1DE1E
:100610008823D9F080917A0290917B020097A9F00B
:10062000E090E702F090E802E114F10471F06DE36C
:1006300071E018D9009749F08DEE92E0B70140E1E2
:1006400050E0FCD888E08093AE01F6D140C028E8A5
:1006500033E1C8010197F1F721503040D1F7ECD1D7
:1006600087E191E06CEE70E0DADE882341F482E805
:1006700092E069E970E0F6D8009709F4F0C087E0ED
:100680008093AE01D9D14091AE014730B0F028EE51
:1006900033E0C8010197F1F721503040D1F725CF61
:1006A00086E091E069E970E0BADE882309F40CC1C4
:1006B00086E08093AE01DD2446E0C298E8CF8CE965
:1006C00090E069E970E0ABDE882309F0C1C0409199
:1006D000AE01DBCF86E990E069E970E0A0DE882317
:1006E000B1F381E08093AE0141E0C298D0CFA4D1B4
:1006F00087ED90E064EE70E092DE882309F49DC0FF
:1007000082E892E06AE370E087D860E070E04AE057
:1007100050E04AD6D62E81E08D1508F0CFC084E097
:100720008093AE01DD2444E0C298B1CF8AEF90E01F
:1007300069E970E074DE882309F4D7C085E080930E
:10074000AE0145E0C298A3CF77D188EA90E041D1CD
:1007500020E43CE9C8010197F1F721503040D1F77E
:1007600083E08093AE01DD2443E0C29890CFC2982D
:1007700080917A0290917B0264E971E073D80097CE
:1007800009F42CCF8091E7029091E8026CE270E0CE
:1007900043D8BC018093E7027093E802C50147D8B3
:1007A0007092E8026092E70281E090E06AE971E00D
:1007B00059D8009789F081E090E0D7DC60917E0203
:1007C00070917F02809180029091810240917C0221
:1007D00050917D0214D202CF81E090E06EE971E089
:1007E00041D8009789F081E090E0BFDC60917E0203
:1007F00070917F02809180029091810240917C02F1
:1008000050917D026FD3EACE81E090E062EA71E020
:1008100029D8009709F472C081E090E0A6DC6091CD
:100820007E0270917F0280918002909181024091BE
:100830007C0250917D02EED3D1CE82E892E069E94C
:1008400070E010D80097F1F0DD244091AE011DCF8B
:1008500082E08093AE01F0D04091AE0116CF82E8E5
:1008600092E067E371E0FED7009709F008CFD394D8
:1008700085E08D1508F02BCF84E08093AE0144E035
:10088000C29805CF82E892E06CEE70E0EBD700975B
:1008900009F045CF82E892E064EF70E0E3D700977B
:1008A00009F015CFD39480E29EE4F8013197F1F777
:1008B0000197D9F785E08D1508F009CF82E0809384
:1008C000AE0142E0C298E3CE82E892E064EF70E0CD
:1008D000C9D7009709F0ECCE82E892E062E171E0BE
:1008E000C1D7009709F0E4CEF2CE82E892E064EF3F
:1008F00070E0B8D7009709F021CFE9CE81E090E011
:1009000066EA71E0AFD7009789F081E090E02DDCD6
:1009100040917E0250917F0260918002709181022D
:1009200080917C0290917D0205D258CE81E090E0CA
:100930006AEA71E097D7009709F450CE81E090E021
:1009400014DC60917C0270917D02882777FD809590
:10095000982F40917E0250917F021AD43FCEF89496
:1009600082E08BB91AB880E189B910BC88E98AB9EC
:1009700086E880BD1092730210927202809172021A
:100980008093710280917102809370028091700255
:1009900080936F0278940895482F20E430E080918E
:1009A0006F0290917002891BB901681B7109633055
:1009B0007105ACF3E0916F02F0E0EF73F070E15578
:1009C000FE4F408380916F028F5F80936F02559A34
:1009D0000895CF93DF93EC018881882329F0219635
:1009E000DBDF88818823D9F7DF91CF910895CF93FA
:1009F000DF93FC018491882341F0EF012196CCDF45
:100A0000FE01219684918823D1F7DF91CF9108953B
:100A100090917102809172029817D1F3E091720265
:100A2000F0E0EF77F070E151FE4F8081909172021B
:100A30009F5F90937202089590917102809172026B
:100A40009817C9F090917102809172029817D1F3B2
:100A5000E0917202F0E0EF77F070E151FE4FE0813B
:100A6000809172028F5F80937202909171028091E7
:100A70007202981739F71092720280917202809375
:100A80007102109273020895AC0116161706ACF5A8
:100A900020E030E0DC016150704090917102809163
:100AA00072029817D1F3E0917202F0E0EF77F070E4
:100AB000E151FE4FE081809172028F5F809372025C
:100AC000EC93ED3069F0EA3089F01092730226174A
:100AD00037071CF72F5F3F4FDA01A20FB31FDDCF9F
:100AE00081E0809373021C92C90108958091730282
:100AF0008823C9F310927302D0CF20E030E0C901FF
:100B0000089580916F0290917002891B08958091E1
:100B1000710290917202891B08951F920F920FB675
:100B20000F9211248F939F93EF93FF9390916F02F5
:100B3000809170029817B9F0E0917002F0E0EF73C5
:100B4000F070E155FE4F80818CB9809170028F5F0B
:100B500080937002FF91EF919F918F910F900FBE44
:100B60000F901F9018955598F5CF1F920F920FB6C2
:100B70000F9211248F93EF93FF93E0917102F0E0B5
:100B8000EF77F0708CB1E151FE4F8083809171025C
:100B90008F5F80937102FF91EF918F910F900FBE45
:100BA0000F901F9018952FB520682FBD6F9364E0AC
:100BB0006A95F1F76F910197C9F708952FB52F77CF
:100BC0002FBD6F9364E06A95F1F76F910197C9F7B4
:100BD0000895BC01C19A80E49FE1D3D3CB01709307
:100BE00075026093740222E02FBD21E12EBD77BD16
:100BF00066BD63E070E0B1D37BBD6ABD0895CF925E
:100C0000DF92EF92FF920F931F936B017C018A0199
:100C100086E290E0DEDF8FB580688FBD88E293E2E8
:100C20006F9364E06A95F1F76F910197C9F78FB5FB
:100C30008F778FBD84E991E16F9364E06A95F1F756
:100C40006F910197C9F70150104021E030E040E07A
:100C500050E004C0220F331F441F551F0A95D2F7DE
:100C6000211531054105510509F445C060E372E0E5
:100C7000EAE9F6E01FC08FB580688FBDCB016F93A6
:100C800064E06A95F1F76F910197C9F78FB58F7797
:100C90008FBDCF016F9364E06A95F1F76F91019773
:100CA000C9F7569547953795279521153105410583
:100CB000510509F1DA01C9018C219D21AE21BF2125
:100CC0000097A105B105B9F68FB580688FBDCB013E
:100CD0006F9364E06A95F1F76F910197C9F78FB54B
:100CE0008F778FBDCB016F9364E06A95F1F76F91B9
:100CF0000197C9F7D6CF8FB580688FBD80E392E0AA
:100D00006F9364E06A95F1F76F910197C9F78FB51A
:100D10008F778FBD80E090E06F9364E06A95F1F784
:100D20006F910197C9F71F910F91FF90EF90DF909E
:100D3000CF9008958F929F92AF92BF92CF92DF9201
:100D4000EF92FF920F931F93CF93DF938C015A0181
:100D50006B0183E290E03DDF8FB580688FBD8EEA46
:100D60009DE06F9364E06A95F1F76F910197C9F781
:100D70008FB58F778FBD86ED96E06F9364E06A95AF
:100D8000F1F76F910197C9F7780100E010E020E0DA
:100D900030E840E050E060E070E0E6EFF1E0B0E91C
:100DA0008B2EB1E09B2ECCEDD4E014C08FB58F77A5
:100DB0008FBDCE016F9364E06A95F1F76F91019753
:100DC000C9F756954795379527956F5F7F4F6031E7
:100DD000710509F18FB580688FBDCF016F9364E015
:100DE0006A95F1F76F910197C9F7DA01C9018E2170
:100DF0009F21A023B1230097A105B105B9F68FB5B6
:100E00008F778FBDC4016F9364E06A95F1F76F919E
:100E10000197C9F7D6CF20E030E040E050E860E02D
:100E200070E0E6EFF1E000E911E0CCEDD4E014C0B1
:100E30008FB58F778FBDCE016F9364E06A95F1F720
:100E40006F910197C9F756954795379527956F5F2D
:100E50007F4F6032710509F18FB580688FBDCF017A
:100E60006F9364E06A95F1F76F910197C9F7DA0122
:100E7000C9018A219B21AC21BD210097A105B105A3
:100E8000B9F68FB58F778FBDC8016F9364E06A950F
:100E9000F1F76F910197C9F7D6CF8FB580688FBDF5
:100EA00086EF91E06F9364E06A95F1F76F91019797
:100EB000C9F78FB58F778FBD80E090E06F9364E0C6
:100EC0006A95F1F76F910197C9F7DF91CF911F9163
:100ED0000F91FF90EF90DF90CF90BF90AF909F90D9
:100EE0008F900895CF92DF92EF92FF920F931F930E
:100EF0006B017C018A0184E290E06BDE8FB5806833
:100F00008FBD29E733E0C9016F9364E06A95F1F77B
:100F10006F910197C9F78FB58F778FBDC9016F9317
:100F200064E06A95F1F76F910197C9F78FB5806812
:100F30008FBDC9016F9364E06A95F1F76F910197D6
:100F4000C9F70150104021E030E040E050E004C01B
:100F5000220F331F441F551F0A95D2F72115310563
:100F60004105510509F443C069E773E01FC08FB51F
:100F70008F778FBDCB016F9364E06A95F1F76F9126
:100F80000197C9F78FB580688FBDCB016F9364E07F
:100F90006A95F1F76F910197C9F75695479537957F
:100FA0002795211531054105510509F1DA01C901DE
:100FB0008C219D21AE21BF210097A105B105B9F675
:100FC0008FB580688FBDCB016F9364E06A95F1F7B0
:100FD0006F910197C9F78FB58F778FBDCB016F9355
:100FE00064E06A95F1F76F910197C9F7D6CF8FB595
:100FF0008F778FBD80E090E06F9364E06A95F1F7A2
:101000006F910197C9F71F910F91FF90EF90DF90BB
:10101000CF900895AF92BF92CF92DF92EF92FF925E
:101020000F931F935B016C018A0184E290E0D1DD94
:101030008FB580688FBD8AE69AE06F9364E06A9509
:10104000F1F76F910197C9F78FB58F778FBD89E75A
:1010500093E06F9364E06A95F1F76F910197C9F798
:101060008FB580688FBD2CEB31E0C9016F9364E0D0
:101070006A95F1F76F910197C9F78FB58F778FBD9B
:10108000C9016F9364E06A95F1F76F910197C9F711
:101090000150104021E030E040E050E004C0220F59
:1010A000331F441F551F0A95D2F7211531054105FD
:1010B000510509F458C06CEB71E091E0E92EF12C78
:1010C000012D112DDA01C9018A219B21AC21BD21FD
:1010D0000097A105B10569F18FB580688FBDCB017F
:1010E0006F9364E06A95F1F76F910197C9F78FB537
:1010F0008F778FBDCB016F9364E06A95F1F76F91A5
:101100000197C9F7569547953795279521153105CC
:101110004105510541F10894E11CF11C011D111D0F
:1011200084E0E816F10401051105D1F06CEB71E0E3
:10113000C9CF8FB58F778FBDCB016F9364E06A9570
:10114000F1F76F910197C9F78FB580688FBDCB011B
:101150006F9364E06A95F1F76F910197C9F7D2CF69
:1011600068E773E0AFCF8FB58F778FBD80E090E0F9
:101170006F9364E06A95F1F76F910197C9F71F913A
:101180000F91FF90EF90DF90CF90BF90AF900895B8
:10119000CF92DF92EF92FF920F931F936B017C012E
:1011A0008A0186E290E015DD8FB580688FBD28E862
:1011B00033E1C9016F9364E06A95F1F76F9101978C
:1011C000C9F78FB58F778FBDC9016F9364E06A95BA
:1011D000F1F76F910197C9F70150104021E030E01D
:1011E00040E050E004C0220F331F441F551F0A95F2
:1011F000D2F7211531054105510509F445C060E3D9
:1012000072E0E0E4F6E01FC08FB580688FBDCB01CF
:101210006F9364E06A95F1F76F910197C9F78FB505
:101220008F778FBDCF016F9364E06A95F1F76F916F
:101230000197C9F75695479537952795211531059B
:101240004105510509F1DA01C9018C219D21AE2129
:10125000BF210097A105B105B9F68FB580688FBD94
:10126000CB016F9364E06A95F1F76F910197C9F72D
:101270008FB58F778FBDCB016F9364E06A95F1F7DF
:101280006F910197C9F7D6CF8FB580688FBD80E386
:1012900092E06F9364E06A95F1F76F910197C9F757
:1012A0008FB58F778FBD80E090E06F9364E06A9593
:1012B000F1F76F910197C9F71F910F91FF90EF9090
:1012C000DF90CF9008950F931F93CF93DF93182F44
:1012D000092FEB01CA017DDC1C161D066CF5812F60
:1012E000902F9C01F90120E030E012C08FB58F777C
:1012F0008FBD808191816F9364E06A95F1F76F9162
:101300000197C9F72F5F3F4F32962C173D07A4F482
:1013100020FDECCF8FB580688FBD808191816F9368
:1013200064E06A95F1F76F910197C9F72F5F3F4F1E
:1013300032962C173D0764F38FB58F778FBD80E011
:1013400090E06F9364E06A95F1F76F910197C9F7A8
:10135000DF91CF911F910F910895AA1BBB1B51E103
:1013600007C0AA1FBB1FA617B70710F0A61BB70B15
:10137000881F991F5A95A9F780959095BC01CD01BA
:10138000089597FB092E07260AD077FD04D0E5DFE4
:1013900006D000201AF4709561957F4F0895F6F7F6
:1013A000909581959F4F08952F923F925F926F92F3
:1013B0007F928F929F92AF92BF92CF92DF92EF92E5
:1013C000FF920F931F93CF93DF938C011B01EA01D0
:1013D0006115710519F0FB0191838083209749F015
:1013E000CE010297839728F020E030E040E050E003
:1013F000F3C0F801A1908F018A2D90E0FAD1892BDA
:10140000C1F7FDE2AF1631F4F801A1908F01552428
:10141000539407C0FBE2AF1619F4F801A1908F01B5
:101420005524209719F0C031D105C1F4F0E3AF166F
:1014300079F4F8018081883711F0883549F4F80192
:10144000A1800E5F1F4FF2E05F2AC0E1D0E006C02E
:10145000209721F480E3A816E9F427C0C830D1050D
:1014600031F1C930D10524F4C230D10531F50CC0B9
:10147000CA30D10589F0C031D105F9F4C12CD12C85
:10148000E12CB8E0FB2E27C0C12CD12CE12CA0E42C
:10149000FA2E21C0CAE0D0E0FCECCF2EFCECDF2E0F
:1014A000FCECEF2EFCE0FF2E16C0C8E0D0E0C12C13
:1014B000D12CE12CE0E1FE2E0EC09E01442737FD29
:1014C0004095542F60E070E080E090E836D2C9018A
:1014D000DA016C017D0120E030E040E050E060E0A6
:1014E0003E01882477FC8094982C70EDB72EBA0CBE
:1014F000E9E0EB1570F48A2D81548A3118F499ECE7
:10150000B92E06C08A2D81568A3148F589EAB82E4F
:10151000BA0C8B2D90E08C179D070CF56F3FD9F01E
:10152000C216D306E406F506A8F0CA01B901A40163
:101530009301E4D19B01AC012B0D311D411D511DC7
:101540002130F0E03F07F0E04F07F0E85F0710F4CC
:1015500061E001C06FEFF801A1908F01C6CF2114A7
:10156000310481F0662331F001501040F101118304
:10157000008308C051FE1AC002501040F1011183CF
:10158000008314C067FF12C050FC05C02FEF3FEF6F
:101590004FEF5FE704C020E030E040E050E882E237
:1015A00090E09093FE028093FD0216C050FE08C0AA
:1015B00050954095309521953F4F4F4F5F4F0CC050
:1015C00057FF0AC082E290E09093FE028093FD02F2
:1015D0002FEF3FEF4FEF5FE7B901CA01DF91CF91E6
:1015E0001F910F91FF90EF90DF90CF90BF90AF9041
:1015F0009F908F907F906F905F903F902F90089575
:10160000A0E0B0E0E5E0FBE0BBC1EC012B016A012A
:101610006115710519F0FB0191838083C114D10418
:1016200049F0C6010297839728F020E030E040E0BF
:1016300050E0D9C0A9908A2D90E0DBD0892BD1F75A
:10164000FDE2AF1621F4A9903324339405C08BE258
:10165000A81609F4A9903324C114D10421F0E0E1C3
:10166000CE16D10411F5F0E3AF1669F488818837FE
:1016700011F0883541F4A980229682E0382A20E1D1
:10168000C22ED12C12C0C114D10479F4E0E3AE16FD
:1016900059F199E9E92E99E9F92E99E9092F99E18A
:1016A000192F8AE0C82ED12C39C0FAE0CF16D10408
:1016B00091F080E1C816D10429F0E8E0CE16D104FB
:1016C000F9F415C0BFEFEB2EBFEFFB2EBFEF0B2FD2
:1016D000BFE01B2F23C0A9E9EA2EA9E9FA2EA9E948
:1016E0000A2FA9E11A2F1AC0F8E0CF2ED12CEFEF64
:1016F000EE2EEFEFFE2EEFEF0E2FEFE11E2F0EC0BE
:101700009601442737FD4095542F6FEF7FEF8FEF01
:101710009FEF13D1C901DA017C018D0120E030E097
:1017200040E050E060E03601882477FC8094982CFB
:1017300070EDB72EBA0CF9E0FB1570F48A2D8154C8
:101740008A3118F499ECB92E06C08A2D81568A3157
:1017500040F589EAB82EBA0C8B2D90E08C159D05CA
:1017600004F56F3FE1F0E216F30604071507B0F049
:10177000CA01B901A4019301C1D09B01AC018B2D19
:1017800090E0A0E0B0E0280F391F4A1F5B1F281728
:1017900039074A075B0710F061E001C06FEFA990BD
:1017A000C7CF4114510451F0662311F0219703C0B3
:1017B00031FE04C02297F201D183C08330FE07C0FE
:1017C00050954095309521953F4F4F4F5F4F67FFA4
:1017D0000AC082E290E09093FE028093FD022FEF18
:1017E0003FEF4FEF5FEFB901CA01CDB7DEB7E1E1DF
:1017F000E3C0911170C0803219F089508550D0F744
:101800000895FB01DC010D900020E9F7119701908C
:101810000D920020E1F70895FC018191861721F0D7
:101820008823D9F7992708953197CF010895FB01AF
:10183000DC0101900D920020E1F70895DC01FB012D
:101840004150504058F049F001900D920020C1F7EE
:10185000E61BF70B3197CF0108951C9201900020F1
:10186000E9F7F6CFFB0151915523A9F0BF01DC0147
:101870004D9145174111E1F759F4CD010190002038
:1018800049F04D9140154111C9F3FB014111EFCFD2
:1018900081E090E001970895FB019F01E8944230B8
:1018A000BCF04532ACF44A3029F497FB1EF4909515
:1018B00081959F4F642F772750DD805D8A330CF030
:1018C000895D8193CB010097A9F716F45DE25193EE
:1018D0001082C90103C0992788270895DC01FC0103
:1018E000672F71917723E1F7329704C07C916D9354
:1018F00070836291AE17BF07C8F30895629FD0014D
:10190000739FF001829FE00DF11D649FE00DF11DBA
:10191000929FF00D839FF00D749FF00D659FF00D69
:101920009927729FB00DE11DF91F639FB00DE11D56
:10193000F91FBD01CF0111240895A1E21A2EAA1B9F
:10194000BB1BFD010DC0AA1FBB1FEE1FFF1FA2176F
:10195000B307E407F50720F0A21BB30BE40BF50B6C
:10196000661F771F881F991F1A9469F760957095F5
:10197000809590959B01AC01BD01CF0108952F92F8
:101980003F924F925F926F927F928F929F92AF920F
:10199000BF92CF92DF92EF92FF920F931F93CF935C
:1019A000DF93CDB7DEB7CA1BDB0B0FB6F894DEBFF3
:1019B0000FBECDBF09942A88398848885F846E8419
:1019C0007D848C849B84AA84B984C884DF80EE8063
:1019D000FD800C811B81AA81B981CE0FD11D0FB66C
:1019E000F894DEBF0FBECDBFED010895F894FFCF90
:1019F0006275737920702E2E00574946492044495C
:101A000053434F4E4E454354005749464920474F94
:101A100054204950002B4950442C000D0A41542BAE
:101A20005253540D0A004154004F4B0041542B4374
:101A3000574D4F44453D33000D0A41542B43574AFF
:101A400041503D2261697366696272655F322E346E
:101A5000475F463537443530222C223646463537E7
:101A6000443530220D0A0041542B43495053544110
:101A7000545553005354415455533A00434F4E4E1E
:101A8000454354004552524F520041542B43495054
:101A90004D55583D300041542B434950434C4F5312
:101AA00045004641494C0041542B43495053544151
:101AB00052543D22554450222C2230222C302C31BD
:101AC000303030302C3200524541445900495243A5
:101AD0004950000D0A41542B434950434C4F534544
:101AE0000D0A000D0A41542B43495053544152549E
:101AF0003D22544350222C2200222C3130303030F1
:101B00000D0A002449525245512C000D0A41542B14
:101B100043495053454E443D000D0A0030303030AB
:101B2000300000004952434D44004E4543005243AB
:0E1B300035005243360050414E0053414D00E7
:00000001FF
