:100000001AC034C033C032C031C030C02FC02EC07F
:100010002DC02DC02BC0EEC4C5C428C027C026C02B
:1000200025C024C023C034C328C36BC33EC35BC3F5
:1000300015C3EBC2CBC211241FBECFE5D4E0DEBF97
:10004000CDBF11E0A0E6B0E0E2E3FEE002C0059023
:100050000D92A439B107D9F712E0A4E9B1E001C0CB
:100060001D92AD3DB107E1F7D1D1E1C6C9CF1F92D5
:100070000F920FB60F9211248F939F93AF93BF935C
:100080008091C7029091C802A091C902B091CA02A2
:100090000196A11DB11D8093C7029093C802A09341
:1000A000C902B093CA0286E082BF83E083BFBF91DA
:1000B000AF919F918F910F900FBE0F901F90189549
:1000C0001092C7021092C8021092C9021092CA027E
:1000D00083E083BF86E082BF89B7816089BF78945F
:1000E00008954091C7025091C8026091C902709171
:1000F000CA0228EE33E0FC01E29FC001E39F900DAD
:10010000F29F900D1124AA2797FDA095BA2F840F76
:10011000951FA61FB71F80935A0290935B02A0936E
:100120005C02B0935D020895FC0191819A32D1F096
:100130009D30C1F09A30B1F09923A1F080E09F0189
:100140002B593F4F0AC09D3061F09A3069F09923D6
:1001500049F03196E217F30729F0892792819A3204
:1001600091F7089580E008950895EF92FF920F931C
:100170001F93CF93DF9300E612E094E6F92EC0E9D7
:10018000D1E084E0E82EF8018F2D11928A95E9F7ED
:100190008091C7029091C802A091C902B091CA0291
:1001A0008056904FAF4FBF4F80935A0290935B029F
:1001B000A0935C02B0935D02EFD38823A9F4209151
:1001C0005A0230915B0240915C0250915D02809135
:1001D000C7029091C802A091C902B091CA028217C9
:1001E0009307A407B50740F3D7D3882311F180E61E
:1001F00092E064E670E08DD380916002882349F438
:1002000028EE33E0CE010197F1F721503040D1F7CD
:10021000BACF80E692E060E670E068D5009789F09A
:1002200028E833E1CE010197F1F721503040D1F7B2
:10023000AACF80E0DF91CF911F910F91FF90EF90B7
:10024000089580E692E069E670E050D5009709F0E5
:100250009ACF80E692E069E770E048D5009741F0D8
:1002600080919401843008F08ECFE09294018BCF7E
:1002700081E0E0CFCF93DF93EC0177DF882319F49F
:10028000DF91CF91089580E692E0BE012FD59C01C9
:1002900080E0232BA9F381E0DF91CF910895EF92C5
:1002A000FF920F931F93CF93DF93EC012091C7022E
:1002B0003091C8024091C9025091CA0270E088EEA4
:1002C00093E0FC016E9FC0016F9F900D7E9F900D8B
:1002D00011247C010027F7FC0095102FE20EF31E7D
:1002E000041F151FCE01C6DF8823A9F48091C70221
:1002F0009091C802A091C902B091CA028E159F05C3
:10030000A007B10778F380E0DF91CF911F910F91A3
:10031000FF90EF90089581E0DF91CF911F910F91B1
:10032000FF90EF9008951F93CF93DF931092C60232
:100330001092C50210925F0210925E0285E890E072
:1003400065E0ADDF882329F480E0DF91CF911F9134
:10035000089580E692E065E870E0C8D4059664E20E
:1003600070E0A5D4EC01009779F3DEDE182F882326
:1003700059F3CE016AE270E09AD4009729F301960E
:1003800060E070E040E150E053D31617E9F62196A3
:10039000D0935F02C0935E02CE016CE270E087D41E
:1003A000FC01009769F01192F093C602E093C50238
:1003B000CF016AE270E07BD4FC01108281E0C5CFFE
:1003C0001092C6021092C502CE016AE270E06FD4AC
:1003D000F3CF0F931F93CF93DF938C01EB018DE04D
:1003E00020D28AE01ED2C80139D28DE01AD28AE02A
:1003F00018D2C80161E053DF882319F0CE0161E013
:100400004EDFDF91CF911F910F9108954F925F9230
:100410006F927F928F929F92AF92BF92CF92DF9214
:10042000EF92FF920F931F93DF93CF93CDB7DEB779
:1004300060970FB6F894DEBF0FBECDBF5E01089483
:10044000A11CB11CD501ECE8F1E086E001900D9211
:100450008150E1F718861F8233DEC6D186E087BB64
:1004600088B3897F88BB1092C4028BE890E0F6D1F4
:1004700080E29EE420E931E0F9013197F1F701973C
:10048000D9F71FD2FF244091940169E0862E912C68
:100490008C0E9D1E00E911E050E6652E52E0752E8F
:1004A0003AE2432E512C28E0E22E4830B8F4C29AAA
:1004B00028EE33E0C8010197F1F721503040D1F721
:1004C000E42FF0E0E830F10508F0BDC0ED5EFF4F2D
:1004D0000994F3948EE18F1508F474C0C29883E4F4
:1004E00091E0BCD128EE33E0C8010197F1F721502B
:1004F0003040D1F7E6D183E591E0B0D18BEC92E0CA
:10050000ADD189E691E0AAD1DCD128E833E1C80178
:100510000197F1F721503040D1F7A0E6B2E0E3E7D0
:10052000F1E088E001900D928150E1F780E692E0E1
:10053000B501B2D3F30101900020E9F73197E056FD
:10054000F240E05AFD4F5182408280E692E0ECDDBD
:10055000F82E90E0B40140E150E0E2D3BC0180E627
:1005600092E09AD38BE791E079D1F30101900020DA
:10057000E9F73197CF0180569240B4014AE050E04C
:10058000CFD36CD189E891E069D1C29A28E833E1F0
:10059000C8010197F1F721503040D1F780E692E091
:1005A0005DD1C1DE882309F494CFC29820E23EE4F5
:1005B000C8010197F1F721503040D1F78EE18F1536
:1005C00008F08CCF1092940140E071CFACDE88230C
:1005D000D1F080915E0290915F020097A1F0C090EF
:1005E000C502D090C602C114D10469F06DE371E078
:1005F0007DD3009741F08BEC92E0B60140E150E0F2
:1006000061D3E09294015DD140C028E833E1C80194
:100610000197F1F721503040D1F753D187E191E0B4
:100620006CEE70E0D6DE882341F480E692E069E962
:1006300070E05CD3009709F4C4C087E08093940114
:1006400040D1409194014730B0F028EE33E0C8012A
:100650000197F1F721503040D1F727CF86E091E0A4
:1006600069E970E0B6DE882309F491C086E08093E2
:100670009401FF2446E0C298E8CF8CE990E069E954
:1006800070E0A7DE882309F07BC040919401DBCFA6
:1006900086E990E069E970E09CDE8823B1F381E0AF
:1006A0008093940141E0C298D0CF0BD187ED90E0C8
:1006B00064EE70E08EDE8823B9F180E692E06AE3B2
:1006C00070E0F5D260E070E04AE050E0B1D1F62E83
:1006D00081E08F1508F04EC084E080939401FF24E0
:1006E00044E0C298B2CF8AEF90E069E970E071DE31
:1006F000882309F45DC085E08093940145E0C298A9
:10070000A4CFDFD088EA90E0A9D020E43CE9C8017A
:100710000197F1F721503040D1F783E080939401A5
:10072000FF2443E0C29891CF80E692E069E970E04F
:10073000DDD2009721F0FF244091940184CF80E620
:1007400092E06CEE70E0D2D2009731F680E692E053
:1007500064EF70E0CBD2009709F097CFF39480E27A
:100760009EE4F8013197F1F70197D9F785E08F15ED
:1007700008F08BCF82E08093940142E0C29865CF6D
:1007800082E0809394019DD0409194015CCF80E6FB
:1007900092E064EF70E0AAD2009709F067CF80E69C
:1007A00092E062E171E0A2D2009709F05FCF6DCFD5
:1007B00080E692E064EF70E099D2009709F09BCF59
:1007C00064CF80E692E067E371E090D2009709F091
:1007D00034CFF39485E08F1508F057CF84E08093F1
:1007E000940144E0C29831CFF89482E08BB91AB8F2
:1007F00080E189B910BC88E98AB986E880BD109289
:1008000059021092580280915802809357028091A9
:100810005702809356028091560280935502789435
:100820000895482F20E430E08091550290915602BF
:10083000891BB901681B710963307105ACF3E09144
:100840005502F0E0EF73F070EB56FE4F408380915D
:1008500055028F5F80935502559A0895CF93DF9389
:10086000EC018881882329F02196DBDF88818823A9
:10087000D9F7DF91CF910895CF93DF93FC01849155
:10088000882341F0EF012196CCDFFE01219684916F
:100890008823D1F7DF91CF910895909157028091ED
:1008A00058029817D1F3E0915802F0E0EF77F0701A
:1008B000EB52FE4F8081909158029F5F90935802B7
:1008C000089590915702809158029817C9F090911D
:1008D0005702809158029817D1F3E0915802F0E046
:1008E000EF77F070EB52FE4FE081809158028F5FFE
:1008F000809358029091570280915802981739F7C7
:100900001092580280915802809357021092590217
:100910000895AC0116161706ACF520E030E0DC01B6
:100920006150704090915702809158029817D1F30E
:10093000E0915802F0E0EF77F070EB52FE4FE0816B
:10094000809158028F5F80935802EC93ED3069F0EC
:10095000EA3089F010925902261737071CF72F5FEB
:100960003F4FDA01A20FB31FDDCF81E08093590220
:100970001C92C9010895809159028823C9F31092ED
:100980005902D0CF20E030E0C9010895809155028E
:1009900090915602891B08958091570290915802B8
:1009A000891B08951F920F920FB60F9211248F93F7
:1009B0009F93EF93FF939091550280915602981761
:1009C000B9F0E0915602F0E0EF73F070EB56FE4F95
:1009D00080818CB9809156028F5F80935602FF917F
:1009E000EF919F918F910F900FBE0F901F901895D0
:1009F0005598F5CF1F920F920FB60F9211248F9337
:100A0000EF93FF93E0915702F0E0EF77F0708CB135
:100A1000EB52FE4F8083809157028F5F8093570285
:100A2000FF91EF918F910F900FBE0F901F9018952F
:100A30002F923F925F926F927F928F929F92AF928E
:100A4000BF92CF92DF92EF92FF920F931F93CF93BB
:100A5000DF938C011B01EA016115710519F0FB019F
:100A600091838083209749F0CE010297839728F0E5
:100A700020E030E040E050E0F3C0F801A1908F01A9
:100A80008A2D90E001D1892BC1F7FDE2AF1631F438
:100A9000F801A1908F015524539407C0FBE2AF16D3
:100AA00019F4F801A1908F015524209719F0C03155
:100AB000D105C1F4F0E3AF1679F4F80180818837ED
:100AC00011F0883549F4F801A1800E5F1F4FF2E064
:100AD0005F2AC0E1D0E006C0209721F480E3A81689
:100AE000E9F427C0C830D10531F1C930D10524F46B
:100AF000C230D10531F50CC0CA30D10589F0C03102
:100B0000D105F9F4C12CD12CE12CB8E0FB2E27C083
:100B1000C12CD12CE12CA0E4FA2E21C0CAE0D0E0F7
:100B2000FCECCF2EFCECDF2EFCECEF2EFCE0FF2EDD
:100B300016C0C8E0D0E0C12CD12CE12CE0E1FE2EA3
:100B40000EC09E01442737FD4095542F60E070E0B1
:100B500080E090E84AD1C901DA016C017D0120E012
:100B600030E040E050E060E03E01882477FC809473
:100B7000982C70EDB72EBA0CE9E0EB1570F48A2DC5
:100B800081548A3118F499ECB92E06C08A2D815609
:100B90008A3148F589EAB82EBA0C8B2D90E08C1773
:100BA0009D070CF56F3FD9F0C216D306E406F50693
:100BB000A8F0CA01B901A4019301E4D09B01AC01E2
:100BC0002B0D311D411D511D2130F0E03F07F0E09C
:100BD0004F07F0E85F0710F461E001C06FEFF80124
:100BE000A1908F01C6CF2114310481F0662331F02A
:100BF00001501040F1011183008308C051FE1AC05A
:100C000002501040F1011183008314C067FF12C02D
:100C100050FC05C02FEF3FEF4FEF5FE704C020E02F
:100C200030E040E050E882E290E09093DC02809374
:100C3000DB0216C050FE08C05095409530952195B6
:100C40003F4F4F4F5F4F0CC057FF0AC082E290E00A
:100C50009093DC028093DB022FEF3FEF4FEF5FE7D3
:100C6000B901CA01DF91CF911F910F91FF90EF90D1
:100C7000DF90CF90BF90AF909F908F907F906F90BC
:100C80005F903F902F900895911169C0803219F0C4
:100C900089508550D0F70895FB01DC010D900020AC
:100CA000E9F7119701900D920020E1F70895FC01FA
:100CB0008191861721F08823D9F7992708953197D4
:100CC000CF010895DC01FB014150504058F049F03C
:100CD00001900D920020C1F7E61BF70B3197CF0171
:100CE00008951C9201900020E9F7F6CFFB01519185
:100CF0005523A9F0BF01DC014D9145174111E1F7E2
:100D000059F4CD010190002049F04D914015411159
:100D1000C9F3FB014111EFCF81E090E00197089505
:100D2000FB019F01E8944230BCF04532ACF44A30FC
:100D300029F497FB1EF4909581959F4F642F772798
:100D400040D0805D8A330CF0895D8193CB010097A0
:100D5000A9F716F45DE251931082C90103C09927E7
:100D600088270895DC01FC01672F71917723E1F753
:100D7000329704C07C916D9370836291AE17BF0768
:100D8000C8F30895629FD001739FF001829FE00D28
:100D9000F11D649FE00DF11D929FF00D839FF00DFA
:100DA000749FF00D659FF00D9927729FB00DE11DA6
:100DB000F91F639FB00DE11DF91FBD01CF01112483
:100DC0000895AA1BBB1B51E107C0AA1FBB1FA61792
:100DD000B70710F0A61BB70B881F991F5A95A9F7E4
:100DE00080959095BC01CD010895A1E21A2EAA1B11
:100DF000BB1BFD010DC0AA1FBB1FEE1FFF1FA217CB
:100E0000B307E407F50720F0A21BB30BE40BF50BC7
:100E1000661F771F881F991F1A9469F76095709550
:100E2000809590959B01AC01BD01CF010895F89488
:020E3000FFCFF2
:100E32006275737920702E2E005749464920444925
:100E420053434F4E4E454354005749464920474F5E
:100E520054204950002B4950442C000D0A41542B78
:100E62005253540D0A004154004F4B0041542B433E
:100E7200574D4F44453D33000D0A41542B43574AC9
:100E820041503D2261697366696272655F322E3438
:100E9200475F463537443530222C223646463537B1
:100EA200443530220D0A0041542B434950535441DA
:100EB200545553005354415455533A00434F4E4EE8
:100EC200454354004552524F520041542B4349501E
:100ED2004D55583D300041542B434950434C4F53DC
:100EE20045004641494C0041542B4349505354411B
:100EF20052543D22554450222C2230222C302C3187
:100F0200303030302C32005245414459004952436E
:100F12004950000D0A41542B434950434C4F53450D
:100F22000D0A000D0A41542B434950535441525467
:100F32003D22544350222C2200222C3130303030BA
:100F42000D0A002449525245512C000D0A41542BDE
:100F520043495053454E443D000D0A003030303075
:040F6200300000005B
:00000001FF
