:1000000012C02CC02BC02AC029C028C027C026C0BF
:1000100025C024C023C022C021C020C01FC01EC0D4
:100020001DC01CC01BC011241FBECFE5D4E0DEBF25
:10003000CDBF10E0A0E6B0E0E4E1F3E002C005903F
:100040000D92AC37B107D9F710E0ACE7B0E001C0D2
:100050001D92AE37B107E1F7EBD05AC1D1CFEFE433
:10006000F0E02081206820836F9364E06A95F1F7C7
:100070006F910197C9F70895EFE4F0E020812F77A1
:1000800020836F9364E06A95F1F76F910197C9F748
:100090000895BC01E8E3F0E080818260808380E421
:1000A0009FE123D1862F972F90937D0080937C0032
:1000B00022E02FBD21E12EBD97BD86BD63E070E03B
:1000C00000D1862F972F9BBD8ABD0895EF92FF9296
:1000D0000F931F93CF93DF93182F092F7B01CA0132
:1000E000D8DF1E141F04B4F4212F302F8901C0E083
:1000F000D0E0C0FF05C0F80180819181BDDF04C060
:10010000F80180819181ABDF21960E5F1F4FCE15E4
:10011000DF057CF380E090E0AFDFDF91CF911F91AE
:100120000F91FF90EF90089586E290E0B2DF8CE7A8
:1001300091E0A2DF8CE791E092DF8CE791E09CDF19
:100140008CE791E08CDF8CE791E096DF8CE791E023
:1001500086DF8CE791E090DF8CE791E080DF8CE731
:1001600091E08ADF8CE791E07ADF8CE791E084DF31
:1001700008958F929F92AF92BF92CF92DF92EF92AB
:10018000FF920F931F93CF93DF937C018B01EA01C2
:1001900086E290E07EDF80E19EE061DF80E496E031
:1001A0006BDF5E01A00EB11ECA15DB0574F5670199
:1001B000CC0EDD1E7E0188249924F6018081082F53
:1001C00010E0E401C8010C2E02C0959587950A94B1
:1001D000E2F780FF07C08CE791E041DF84E195E022
:1001E0004BDF06C08CE791E03ADF8CE791E044DF1B
:1001F0002196C830D10531F70894E11CF11C089410
:10020000C11CD11CEA14FB04C4F28CE791E027DF87
:100210008CE791E031DFDF91CF911F910F91FF903B
:10022000EF90DF90CF90BF90AF909F908F90089508
:10023000AF92BF92CF92DF92EF92FF920F931F93F4
:10024000CF93DF93E7E3F0E0808182608083E8E38F
:10025000F0E080818D7F80830F2EF0E6EF2EF0E0BE
:10026000FF2EF02D0F2EF2E2AF2EF1E0BF2EF02D7B
:10027000C0E9D1E008E310E00F2EF0E2CF2EFEE45B
:10028000DF2EF02DC70168E070E040E050E071DF44
:100290009501CE010197F1F721503040D1F7C70108
:1002A00063E170E048E050E064DFF80180818D7F19
:1002B00080839601CE010197F1F721503040D1F7AC
:1002C000E1CFAA1BBB1B51E107C0AA1FBB1FA6178A
:1002D000B70710F0A61BB70B881F991F5A95A9F7EF
:1002E00080959095BC01CD01089597FB092E0726B6
:1002F0000AD077FD04D0E5DF06D000201AF470950F
:1003000061957F4F0895F6F7909581959F4F0895D9
:04031000F894FFCF8F
:1003140011DA27F00000000211DA27000031320060
:0C03240070000000000000C180002600F6
:00000001FF
